S00C0000554152542E73726563DC
S11300000C942A000C943F000C943F000C943F0085
S11300100C943F000C943F000C943F000C943F0060
S11300200C943F000C943F000C943F000C943F0050
S11300300C943F000C943F000C943F000C943F0040
S11300400C943F000C943F000C943F000C943F0030
S11300500C943F0011241FBECFE5D8E0DEBFCDBF16
S113006011E0A0E6B0E0E2E5F1E002C005900D92F7
S1130070A835B107D9F70E9441000C94A7000C944D
S113008000000E94830080E690E00E9491008DE0D1
S11300900E948D0089E690E00E9491008DE00E940C
S11300A08D0081E890E00E9491008DE00E948D0017
S11300B08BE990E00E9491008DE00E948D0088EB16
S11300C090E00E9491008DE00E948D0085ED90E00B
S11300D00E9491008DE00E948D0083EF90E00E94C9
S11300E091008DE00E948D0087E191E00E949100D3
S11300F08DE00E948D0086E391E00E9491008DE0E6
S11301000E948D00FFCF10BC8DE489B98AB188614B
S11301108AB980B5866880BD08955D9BFECF8CB991
S113012008950F931F93CF93DF938C01C0E0D0E029
S113013003C00E948D002196F801EC0FFD1F808101
S11301408111F7CFDF91CF911F910F910895F8940A
S1050150FFCFDB
S113015220456E746572202E00203120466F722075
S11301623A20416464696E672075736572202E209B
S113017200203220466F72203A2044656C6574690F
S11301826E672075736572202E2000203320466F1F
S113019272203A204F70656E696E6720746865201C
S11301A267617465202E2000203420466F72203A45
S11301B220436C6F73696E6720746865206761748D
S11301C265202E2000203520466F72203A20557378
S11301D265727320696E666F726D6174696F6E20E9
S11301E22E2000203620466F72203A206368616E0A
S11301F267696E6720757365722773207061737304
S1130202776F7264202E00203720466F72203A20C6
S113021253746F7070696E67207468652042757AD2
S11302227A6572202E00203820466F72203A2053BD
S1130232657474696E672074696D6520616E6420EB
S10B024264617465202E0000C4
S9030000FC
